:0600000000F0DCEF02F04D
:10000800D9CF08F1DACF09F1F6CF0AF1EDEF8EF08A
:10001800D8CFD5F0E8CFD6F0E0CFD7F0E9CFD8F0F9
:10002800EACFD9F0D9CFDAF0DACFDBF0F3CFDCF0D2
:10003800F4CFDDF0F6CFDEF0F7CFDFF0F8CFE0F069
:10004800F5CFE1F0E80E5C6E030E5D6E000E5E6E9D
:100058005F6E9EB09DA0EDD09E9000019B5101E186
:10006800DED0016A026A960E036E430E046E8AC0E1
:1000780005F08BC006F08CC007F08DC008F0A1EC2D
:100088008EF004E2FF0ED6EC8FF03BD0016A026AD4
:10009800340E036E420E046E8AC005F08BC006F063
:1000A8008CC007F08DC008F0A1EC8EF027E2376A0B
:1000B800386A340E396EC20E3A6E8AC033F08BC07D
:1000C80034F08CC035F08DC036F049EC87F033C081
:1000D80042F034C043F035C044F036C045F0B7ECC8
:1000E8008CF042C0D1F043C0D2F044C0D3F045C038
:1000F800D4F00001D151D6EC8FF003D0000ED6EC2D
:100108008FF08AC001F08BC002F08CC003F08DC064
:1001180004F0056A066A200E076E410E086EA1EC0F
:100128008EF011E2FF0E4D6EDF0E4C6E8AC04EF05F
:100138008BC04FF08CC050F08DC051F00001A10E63
:1001480000EC80F066D08AC001F08BC002F08CC051
:1001580003F08DC004F0056A066AC80E076E420EE9
:10016800086EA1EC8EF011E2FF0E4D6EE00E4C6EA3
:100178008AC04EF08BC04FF08CC050F08DC051F04B
:100188000001A10E00EC80F044D08AC001F08BC0C1
:1001980002F08CC003F08DC004F0056A066A7A0E7E
:1001A800076E440E086EA1EC8EF011E2FF0E4D6E44
:1001B800E10E4C6E8AC04EF08BC04FF08CC050F0F0
:1001C8008DC051F00001A10E00EC80F022D08AC051
:1001D80042F08BC043F08CC044F08DC045F0B7ECC2
:1001E8008CF042C058F043C059F044C05AF045C0A2
:1001F8005BF0FF0E4D6EFB0E4C6E58C04EF059C0B2
:100208004FF05AC050F05BC051F00001A10E00EC55
:1002180080F0026AA10E016EE7EC88F00AD09A2BF2
:1002280000019AA7F6D7FF0E026EED0E016EE7ECFD
:1002380088F09EB29DA22AD09E92330E0001992585
:10024800F66EF76AFF0EF722F86A000EF822080029
:10025800F5CFD1F0C230E8320F0BD11914E0330ECC
:100268009925F66EF76AFF0EF722F86A000EF82253
:100278000800F5CFD1F0D147D147C250D119C30BEF
:10028800D119C26E03D0C282CA94CC6A9EBC9DACFE
:1002980074D19E9C00019951020DF350600FD96EE4
:1002A800DA6AC3CFDEFFC4CFDDFF992B99510E0A5E
:1002B80001E062D1996B9D6BA06B1DD0A051020D1E
:1002C800F350600FD96EDA6ADECFD1F0DDCFD2F00D
:1002D800100ED15D000ED25907E39D517C0FD96EE7
:1002E800DA6AA0C0DFFF9D2B9D51020A03E19D2B16
:1002F800080EA06FA02B070EA065E0D79E6B080E16
:10030800A06F1ED0A051020DF350600FD96EDA6AAB
:10031800DECFD1F0DDCFD2F0100ED15D000ED25974
:1003280008E39D517C0F9E25D96EDA6AA0C0DFFFD5
:100338009E2B9E51020A03E19E2B0E0EA06FA02B4E
:100348000D0EA065DFD703D11E0E9F6506D09B6BEF
:100358008A6B8B6B8C6B8D6B0DD19F2B0BD19F6B2D
:100368007C51020DF350600FD96EDA6ADECF92F03D
:10037800DDCF93F07D51020DF350600FD96EDA6A2C
:10038800DECF94F0DDCF95F09251945D935195595D
:1003980019E25CC001F05DC002F05EC003F05FC00E
:1003A80004F092C0D1F093C0D2F09451D15F95512E
:1003B800D25BD1C005F0D2C006F0076A086AC7EC64
:1003C8008EF018D05CC001F05DC002F05EC003F092
:1003D8005FC004F094C0D1F095C0D2F09251D15FC3
:1003E8009351D25BD1C005F0D2C006F0076A086A03
:1003F800C7EC8EF001C05CF002C05DF003C05EF097
:1004080004C05FF05CC00BF05DC00CF05EC00DF086
:100418005FC00EF05FEC8FF00BC00FF00CC010F057
:100428000DC011F00EC012F094C00BF095C00CF086
:1004380076EC8FF00BC013F00CC014F00DC015F063
:100448000EC016F0D7EC8BF00FC08EF010C08FF0F6
:1004580011C090F012C091F000019B670AD0010E04
:100468009B6F8EC08AF08FC08BF090C08CF091C0CB
:100478008DF0330E136E146E730E156E3F0E166EDE
:100488008AC00FF08BC010F08CC011F08DC012F034
:1004980044EC8AF00FC033F010C034F011C035F0CE
:1004A80012C036F0CD0E136ECC0E146E4C0E156EB7
:1004B8003D0E166E8EC00FF08FC010F090C011F078
:1004C80091C012F044EC8AF00FC037F010C038F039
:1004D80011C039F012C03AF049EC87F033C08AF005
:1004E80034C08BF035C08CF036C08DF0CD8042D052
:1004F800FF0ED6EC8FF0020E00019D6508D09E5DC0
:1005080006E2FF0E026EF20E016EE7EC88F0020EB4
:1005180000019D5D09E2020E9E6506D0FF0E026E87
:10052800F50E016EE7EC88F0020E00019D6508D01B
:100538009E6506D0FF0E026EF80E016EE7EC88F09D
:1005480000018A6B8B6B8C6B8D6BCD9013D09E5199
:100558009DC0D1F0D26BD127000ED223D251C8E171
:10056800D15101E1F1D6010A01E1EED6030A01E118
:10057800F6D6BED7CCEC8AF0CA84E1C0F5FFE0C05D
:10058800F8FFDFC0F7FFDEC0F6FFDDC0F4FFDCC018
:10059800F3FFDBC0DAFFDAC0D9FFD9C0EAFFD8C061
:1005A800E9FFD7C0E0FFD6C0E8FFD5C0D8FF1000EC
:0405B80046EF8FF08B
:10FECA00000000803FCDCCCC3D0AD7233C6F128383
:10FEDA003A17B7D138ACC52737BD37863595BFD65F
:10FEEA003377CC2B325F708930FFE6DB2E08E53C96
:10FEFA001E6042A20D0000803F000020410000C8A1
:10FF0A004200007A4400401C460050C34700247453
:10FF1A00498096184B20BCBE4C286B6E4EF90215D0
:10FF2A0050EC78AD60CAF249710001040506070871
:10FF3A00090A0B0C0D0E0F103F065B4F666D7D070D
:10FF4A007F6F400079503F065B4F666D7D077F6F7C
:10FF5A00400079501020408000920F800F010092DB
:10FF6A000F800F0201920F800F2004970F850F0157
:10FF7A0005970F850F0206970F850F0407970F85C0
:10FF8A000F0808970F850F1009970F850F200A97FA
:10FF9A000F850F400B990F870F100C990F870F20B1
:10FFAA000D990F870F400E990F870F800F010000E0
:10FFBA00000A00000064000000E8030000102700A7
:10FFCA0000A086010040420F008096980000E1F5EB
:10FFDA000500CA9A3B2020252E3166002020302EAB
:10FFEA0030200020202020004531004532004533D2
:06FFFA0000257500000067
:020000040001F9
:10000000CB6F4E0EBB6FFAD3D051250A07E0CB5110
:10001000D96EDA6AD0C0DFFFCB2BF0D3BC6BBD6BDF
:100020004CC0F6FF4DC0F7FF000EF86E0800F5500B
:100030002E0A2EE1BD8D4C4A4D2AC96BCA6B1CD0CD
:10004000C9C001F0CAC002F0046A0A0E036E9EEC39
:100050008FF04CC0F6FF4DC0F7FF000EF86E0800A1
:10006000F5500126000E0222D00E0124C96FFF0EAA
:100070000220CA6F4C4A4D2A4CC0F6FF4DC0F7FF14
:10008000000EF86E0800F550C3EC8FF00AE3D8D7E5
:10009000C96BCA6BBD8905D0BD8517D0C00EBC1316
:1000A00014D04CC0F6FF4DC0F7FF4C4A4D2A000E4D
:1000B000F86E0800F5CFD0F00001D05101E1ADD3CA
:1000C000660AEAE0130AEAE099D3070EBD1501E1DA
:1000D000E7D2BDA903D0CA6B060EC96FBB51D96E5A
:1000E000DA6ADECFCCF0DECFCDF0DECFCEF0DECFE1
:1000F000CFF0040EBB27CFAF14D0CCC001F0CDC0E1
:1001000002F0CEC003F0CFC004F0B1EC8FF001C01C
:10011000CCF002C0CDF003C0CEF004C0CFF0030E8F
:10012000BC13C76BC86B20EECCF0DE50DE10DE10C7
:10013000DE1001E181D0CE35CF35820FC76FC86B9D
:10014000FF0EC823C707D8A0C807C7C001F0C8C0A2
:1001500002F0046A030E036E9EEC8FF001C0C7F03C
:1001600002C0C8F0C7C007F0C8C008F00A6A0A0E8B
:10017000096E78EC8DF007C0C7F008C0C8F0000128
:10018000C851800AF36E800EF35C000ED8B4C75DD0
:1001900003E2C707D8A0C807C751000813EC84F0D2
:1001A00022C0BEF023C0BFF024C0C0F025C0C1F003
:1001B000BEC00FF0BFC010F0C0C011F0C1C012F03F
:1001C000CCC013F0CDC014F0CEC015F0CFC016F0E7
:1001D00044EC8AF00FC0BEF010C0BFF011C0C0F0F8
:1001E00012C0C1F0BEC001F0BFC002F0C0C003F039
:1001F000C1C004F0056A066A800E076E3F0E086EE5
:10020000A1EC8EF005E20001C707D8A0C80714D002
:10021000BEC001F0BFC002F0C0C003F0C1C004F016
:10022000056A066A200E076E410E086EA1EC8EF07C
:1002300003E30001C74BC82B0001CA51800AF36ECB
:10024000800EF35C0D0ED8B4C95D1DE2CCC033F056
:10025000CDC034F0CEC035F0CFC036F0C9511CEC63
:1002600086F022C037F023C038F024C039F025C012
:100270003AF049EC87F033C0CCF034C0CDF035C053
:10028000CEF036C0CFF00001C851800AF36E800E68
:10029000F35C0A0ED8B4C75D26E220EECCF0DE5047
:1002A000DE10DE10DE106DE0CCC042F0CDC043F0B9
:1002B000CEC044F0CFC045F0B7EC8CF042C052F055
:1002C00043C053F044C054F045C055F0555052104F
:1002D0005310541056E10001C851800A800F020EDD
:1002E000D8B4C75D4EE3BEC001F0BFC002F0C0C0CD
:1002F00003F0C1C004F05F0E056E700E066E890E2D
:10030000076E400E086EA1EC8EF003E20001F70EBE
:1003100002D00001F80EC727FF0EC823C75113EC07
:1003200084F022C0BEF023C0BFF024C0C0F025C0BE
:10033000C1F0CCC001F0CDC002F0CEC003F0CFC000
:1003400004F0BEC005F0BFC006F0C0C007F0C1C0D9
:1003500008F054EC8BF001C0AFF002C0B0F003C065
:10036000B1F004C0B2F0AFC0C2F0B0C0C3F0B1C0D1
:10037000C4F0B2C0C5F00001CC6BCD6BCE6BCF6BBF
:1003800039D0CCC042F0CDC043F0CEC044F0CFC095
:1003900045F0B7EC8CF042C0C2F043C0C3F044C09B
:1003A000C4F045C0C5F0CCC042F0CDC043F0CEC0D3
:1003B00044F0CFC045F0C2C00BF0C3C00CF0C4C0C5
:1003C0000DF0C5C00EF05FEC8FF00BC046F00CC016
:1003D00047F00DC048F00EC049F00FEC8FF042C05E
:1003E000CCF043C0CDF044C0CEF045C0CFF000010A
:1003F000C76BC86B010ED06FD051040DB70EF3243C
:10040000F66EFF0EF420F76EF86A000EF82209006F
:10041000F550C25D0900F550C3590900F550C459A3
:100420000900F550C55904E3D02BD0510A0AE4E184
:10043000BCC052F0030E52164EE0CB51D96EDA6AB0
:100440002D0EDF6ECB2B47D0C2C001F0C3C002F02F
:10045000C4C003F0C5C004F0D051040DB70EF3249E
:10046000F66EFF0EF420F76EF86A000EF82209000F
:10047000F5CF05F00900F5CF06F00900F5CF07F03C
:100480000A00F5CF08F004EC8EF001C0B3F002C012
:10049000B4F003C0B5F004C0B6F0B3C00EF0B4C001
:1004A0000FF0B5C010F0B6C011F00A0E126E000EBB
:1004B000136A146A156A70EC8EF00EC0B3F00FC0A8
:1004C000B4F010C0B5F011C0B6F0CB51D96EDA6AF5
:1004D000B351300FB6D7D0070001D0290AE0B4D706
:1004E000CB51D96EDA6A300EDF6ECB2BC707D8A09E
:1004F000C807C851800AF36E800EF35C010ED8B4B1
:10050000C75DEEE2CA51800A800F090ED8B4C95DFA
:1005100003E3080ED06F02D0C9C0D0F0D051C95F3C
:10052000000ED0BFFF0ECA5BD05106E0CB51D96E92
:10053000DA6A2E0EDF6ECB2BD05113EC84F022C082
:10054000ABF023C0ACF024C0ADF025C0AEF0CCC001
:1005500013F0CDC014F0CEC015F0CFC016F0ABC074
:100560000FF0ACC010F0ADC011F0AEC012F044EC12
:100570008AF00FC042F010C043F011C044F012C026
:1005800045F0B7EC8CF042C0C2F043C0C3F044C0A9
:10059000C4F045C0C5F071D0C2C001F0C3C002F0C4
:1005A000C4C003F0C5C004F0D051040DB70EF3244D
:1005B000F66EFF0EF420F76EF86A000EF8220900BE
:1005C000F5CF05F00900F5CF06F00900F5CF07F0EB
:1005D0000A00F5CF08F004EC8EF001C0B7F002C0BD
:1005E000B8F003C0B9F004C0BAF0B7C00EF0B8C09C
:1005F0000FF0B9C010F0BAC011F00A0E126E000E62
:10060000136A146A156A70EC8EF00EC0B7F00FC052
:10061000B8F010C0B9F011C0BAF0CB51D96EDA6A97
:10062000B751300FDF6ECB2BC2C00EF0C3C00FF03E
:10063000C4C010F0C5C011F0D051040DB70EF324A2
:10064000F66EFF0EF420F76EF86A000EF82209002D
:10065000F5CF12F00900F5CF13F00900F5CF14F033
:100660000A00F5CF15F070EC8EF00EC0C2F00FC08E
:10067000C3F010C0C4F011C0C5F00001D007D029EC
:100680000AE08AD7CB51D96EDA6A300EDF6ECB2BF7
:10069000C907D8A0CA07CA51C91101E1AFD0F2D722
:1006A000BB51D96EDA6ADECF52F0DDCF53F052C0C3
:1006B000C2F053C0C3F0C46BC56B020EBB27CA5156
:1006C000C91107E1C551C211C311C41102E1C94BDF
:1006D000CA2B010ED06FD051040DB70EF324F66E65
:1006E000FF0EF420F76EF86A000EF8220900F550AC
:1006F000C25D0900F550C3590900F550C4590900FD
:10070000F550C55904E3D02BD0510A0AE4E1800E1C
:10071000D0BF7F0E526EC951D05DCA51800A525867
:100720000FE3CA51800A526ED051C95D800ED0BF0E
:100730007F0E525805E2D051C96FCA6BC9BFCA07B4
:10074000BCC052F0030E521651E0CB51D96EDA6A9A
:100750002D0EDF6ECB2B4AD0C9C052F0CAC053F069
:10076000D89052365336D89052365336B70E52245C
:10077000F66EFF0E5320F76EF86A000EF82209009D
:10078000F5CF05F00900F5CF06F00900F5CF07F029
:100790000A00F5CF08F0C2C001F0C3C002F0C4C027
:1007A00003F0C5C004F004EC8EF001C00EF002C0EE
:1007B0000FF003C010F004C011F00A0E126E000E0C
:1007C000136A146A156A70EC8EF00EC054F00FC0F4
:1007D00055F010C056F011C057F05450300FD06F84
:1007E000CB51D96EDA6AD0C0DFFFB4D7C907D8A021
:1007F000CA070001C929D8B4CA29AEE14CC0F6FF26
:100800004DC0F7FF4C4A4D2A000EF86E0800F5CF98
:10081000D0F00001D06704EF80F0CB51D96EDA6AD6
:10082000000EDF6E000C2A6E2AAEF7D02A6C2A501A
:10083000800A120F01E295D00A6A0A0E096E046A54
:10084000640E036E2A50016E026A01BE0206C2ECFB
:100850008DF001C007F002C008F078EC8DF0D89060
:1008600007360836D89007360836240E0726000EBD
:100870000822CB0E0724F66EFE0E0820F76EF86AEB
:10088000000EF8220900F5CF13F00900F5CF14F09F
:100890000900F5CF15F00A00F5CF16F00A6A640ECC
:1008A000096E2A50076E086A07BE080678EC8DF0BC
:1008B000D89007360836D89007360836480E0726EF
:1008C000000E0822CB0E0724F66EFE0E0820F76EEF
:1008D000F86A000EF8220900F5CF0FF00900F5CFF5
:1008E00010F00900F5CF11F00A00F5CF12F044EC3A
:1008F0008AF00FC026F010C027F011C028F012C0F7
:1009000029F026C00FF027C010F028C011F029C030
:1009100012F0046A0A0E036E2A50016E026A01BECA
:100920000206C2EC8DF0D89001360236D89001361E
:100930000236CB0E0124F66EFE0E0220F76EF86A28
:10094000000EF8220900F5CF13F00900F5CF14F0DE
:100950000900F5CF15F00A00F5CF16F044EC8AF047
:100960004AD12A50800A750F51E30A6A0A0E096EAD
:100970002A50076E086A07BE080678EC8DF0D890FA
:1009800007360836D89007360836240E0726000E9C
:100990000822CB0E0724F66EFE0E0820F76EF86ACA
:1009A000000EF8220900F5CF0FF00900F5CF10F086
:1009B0000900F5CF11F00A00F5CF12F0046A0A0E13
:1009C000036E2A50016E026A01BE0206C2EC8DF06F
:1009D000D89001360236D89001360236CB0E01246B
:1009E000F66EFE0E0220F76EF86A000EF82209007D
:1009F000F5CF13F00900F5CF14F00900F5CF15F08D
:100A00000A00F5CF16F044EC8AF0F5D02A50040D18
:100A1000CB0EF324F66EFE0EFDD02A50800A120F84
:100A200001E295D00A6A0A0E096E046A640E036E2A
:100A30002A50016E026A01BE0206C2EC8DF001C0AE
:100A400007F002C008F078EC8DF0D8900736083631
:100A5000D89007360836240E0726000E0822FF0E0F
:100A60000724F66EFE0E0820F76EF86A000EF822D4
:100A70000900F5CF13F00900F5CF14F00900F5CF08
:100A800015F00A00F5CF16F00A6A640E096E2A50B6
:100A9000076E086A07BE080678EC8DF0D890073616
:100AA0000836D89007360836480E0726000E08226A
:100AB000FF0E0724F66EFE0E0820F76EF86A000E91
:100AC000F8220900F5CF0FF00900F5CF10F009006A
:100AD000F5CF11F00A00F5CF12F044EC8AF00FC008
:100AE00026F010C027F011C028F012C029F026C04F
:100AF0000FF027C010F028C011F029C012F0046ACE
:100B00000A0E036E2A50016E026A01BE0206C2EC92
:100B10008DF0D89001360236D89001360236FF0E9D
:100B20000124F66EFE0E0220F76EF86A000EF8221F
:100B30000900F5CF13F00900F5CF14F00900F5CF47
:100B400015F00A00F5CF16F044EC8AF054D02A5084
:100B5000800A750F59E30A6A0A0E096E2A50076E59
:100B6000086A07BE080678EC8DF0D890073608367C
:100B7000D89007360836240E0726000E0822FF0EEE
:100B80000724F66EFE0E0820F76EF86A000EF822B3
:100B90000900F5CF0FF00900F5CF10F00900F5CFEF
:100BA00011F00A00F5CF12F0046A0A0E036E2A5003
:100BB000016E026A01BE0206C2EC8DF0D8900136C9
:100BC0000236D89001360236FF0E0124F66EFE0E74
:100BD0000220F76EF86A000EF8220900F5CF13F034
:100BE0000900F5CF14F00900F5CF15F00A00F5CF94
:100BF00016F044EC8AF00FC022F010C023F011C0B0
:100C000024F012C025F017D02A50040DFF0EF32453
:100C1000F66EFE0EF420F76EF86A000EF822090058
:100C2000F5CF22F00900F5CF23F00900F5CF24F02D
:100C30000A00F5CF25F01200326E6D0E32649ED0A0
:100C40000A0E056E640E016E32508BEC8FF02CECA8
:100C50008FF0266E276AD89026362736D89026360B
:100C60002736240E2626000E2722CB0E2624F66ECB
:100C7000FE0E2720F76EF86A000EF8220900F5CF65
:100C800013F00900F5CF14F00900F5CF15F00A00B4
:100C9000F5CF16F0640E056E32502CEC8FF0286EF6
:100CA000296AD89028362936D89028362936480E11
:100CB0002826000E2922CB0E2824F66EFE0E2920AF
:100CC000F76EF86A000EF8220900F5CF0FF0090060
:100CD000F5CF10F00900F5CF11F00A00F5CF12F0B2
:100CE00044EC8AF00FC02EF010C02FF011C030F08D
:100CF00012C031F00A0E016E32508BEC8FF0266E6E
:100D0000276AD89026362736D89026362736CB0E37
:100D10002624F66EFE0E2720F76EF86A000EF822E3
:100D20000900F5CF13F00900F5CF14F00900F5CF55
:100D300015F00A00F5CF16F02EC00FF02FC010F0FE
:100D400030C011F031C012F044EC8AF00FC02AF02C
:100D500010C02BF011C02CF012C02DF02AC00FF0E3
:100D60002BC010F02CC011F02DC012F0136A146AC1
:100D7000156A3F0E166E44EC8AF082D00A0E326479
:100D800061D0016E32508BEC8FF0266E276AD890BE
:100D900026362736D89026362736CB0E2624F66EF2
:100DA000FE0E2720F76EF86A000EF8220900F5CF34
:100DB00013F00900F5CF14F00900F5CF15F00A0083
:100DC000F5CF16F00A0E056E32502CEC8FF0286E1F
:100DD000296AD89028362936D89028362936240E04
:100DE0002826000E2922CB0E2824F66EFE0E29207E
:100DF000F76EF86A000EF8220900F5CF0FF009002F
:100E0000F5CF10F00900F5CF11F00A00F5CF12F080
:100E100044EC8AF00FC02EF010C02FF011C030F05B
:100E200012C031F02EC00FF02FC010F030C011F002
:100E300031C012F0136A146A156A3F0E166E44EC44
:100E40008AF01ED03250040DCB0EF324F66EFE0E47
:100E5000F420F76EF86A000EF8220900F5CF0FF0C3
:100E60000900F5CF10F00900F5CF11F00A00F5CF19
:100E700012F0136A146A156A3F0E166E44EC8AF07B
:100E80000FC022F010C023F011C024F012C025F0D2
:100E9000120033C03BF034C03CF035C03DF036C0EA
:100EA0003EF0180E05D0D8903E323D323C323B32F7
:100EB000E82EF9D73B50416E37C03BF038C03CF0CC
:100EC00039C03DF03AC03EF0180E05D0D8903E3201
:100ED0003D323C323B32E82EF9D73B50406E415018
:100EE00009E04050415C0FE24150405C3B6E210EF6
:100EF0003B5C09E337C033F038C034F039C035F01B
:100F00003AC036F099D0405009E04150405C0FE2C1
:100F10004050415C3B6E210E3B5C09E333C033F033
:100F200034C034F035C035F036C036F085D0060E0A
:100F30003F6E36BE3F8E3ABE3F8C358E366A398E56
:100F40003A6A4050415C1AE2D89037363836393622
:100F50003A364006405041180DE03F063FC03BF096
:100F6000070E3B1607E0F0D7D890363235323432D0
:100F70003332412A40504162F7D71CD04150405C87
:100F800019E2D8903336343635363636410640507D
:100F900041180DE03F063FC03BF0070E3B1607E04F
:100FA000F0D7D8903A32393238323732402A40506E
:100FB0004162F7D73FAE09D0331E341E351E361EB0
:100FC000332A000E3422352236223FAC09D0371E98
:100FD000381E391E3A1E372A000E382239223A228C
:100FE0003F6A335037263450382235503922365034
:100FF0003A223AAE0BD0371E381E391E3A1E372A17
:10100000000E382239223A22010E3F6E37C001F01D
:1010100038C002F039C003F03AC004F041C005F016
:101020003FC006F018EC8DF001C033F002C034F080
:1010300003C035F004C036F01200126BAED00101CF
:101040001251E20FD96EDA6A12510E25106F000E9E
:101050000F21116F10C1F6FF11C1F7FF000EF86EDE
:101060000E0EF76403D00800F55005D0F6CFE9FF67
:10107000F7CFEAFFEF50D00F2AD001011251E20F53
:10108000D96EDA6A0A0E23D0010112510E25106FB3
:10109000000E0F21116F10C1F6FF11C1F7FF000EF6
:1010A000F86E1251E20FD96EDA6A0E0EF76403D0B1
:1010B0000800F55005D0F6CFE9FFF7CFEAFFEF5073
:1010C00006D001011251E20FD96EDA6A0B0EDF6E03
:1010D00062D00C0E0001E26F0D0EE36FE46F0101B0
:1010E000122B12510E25106F000E0F21116F10C11F
:1010F000F6FF11C1F7FF000EF86E0E0EF76403D075
:101100000800F55005D0F6CFE9FFF7CFEAFFEF5022
:10111000D00F0001E56F5AD0010112510E25106F5A
:10112000000E0F21116F10C1F6FF11C1F7FF000E65
:10113000F86E0E0EF76403D00800F55005D0F6CF18
:10114000E9FFF7CFEAFFEF50200ABBE00D0A95E078
:10115000030A9AE01E0A01E172D7010A01E16FD782
:10116000030A01E16CD7010A01E169D7070A01E12D
:1011700066D7010A01E163D7030A01E160D7010ADA
:1011800001E15DD70F0A01E15AD7010A01E157D702
:101190007C0A9FE096D70101122B12510E25106F89
:1011A000000E0F21116F10C1F6FF11C1F7FF000EE5
:1011B000F86E0E0EF76403D00800F55005D0F6CF98
:1011C000E9FFF7CFEAFFEF500009A6E11200056A38
:1011D000ABD005500001E20FD96EDA6A0550012448
:1011E000036E000E0220046E03C0F6FF04C0F7FF7A
:1011F000000EF86E0E0EF76403D00800F55005D00F
:10120000F6CFE9FFF7CFEAFFEF50D00F2AD0055015
:101210000001E20FD96EDA6A0A0E23D005500124CC
:10122000036E000E0220046E03C0F6FF04C0F7FF39
:10123000000EF86E05500001E20FD96EDA6A0E0E4C
:10124000F76403D00800F55005D0F6CFE9FFF7CFDB
:10125000EAFFEF5006D005500001E20FD96EDA6ABE
:101260000B0EDF6E60D00C0E0001E26F0D0EE36F0F
:10127000E46F052A05500124036E000E0220046E5F
:1012800003C0F6FF04C0F7FF000EF86E0E0EF76401
:1012900003D00800F55005D0F6CFE9FFF7CFEAFFFD
:1012A000EF50D00F0001E56F58D005500124036EB8
:1012B000000E0220046E03C0F6FF04C0F7FF000E0C
:1012C000F86E0E0EF76403D00800F55005D0F6CF87
:1012D000E9FFF7CFEAFFEF50200ABDE00D0A97E0E3
:1012E000030A9CE01E0A01E174D7010A01E171D7EB
:1012F000030A01E16ED7010A01E16BD7070A01E198
:1013000068D7010A01E165D7030A01E162D7010A42
:1013100001E15FD70F0A01E15CD7010A01E159D76A
:101320007C0AA1E098D7052A05500124036E000E1F
:101330000220046E03C0F6FF04C0F7FF000EF86E33
:101340000E0EF76403D00800F55005D0F6CFE9FF84
:10135000F7CFEAFFEF500009A8E112000101076F83
:101360005E0EF66EFF0EF76E000EF86E21EE02F0C6
:10137000050E0900F5CFDEFFE82EFBD700019C51DA
:1013800001010717846A83680F0E8116020E00019F
:101390009625D96EDA6A010EDA22DF50816E9751F6
:1013A000E30FD96EDA6A2E0EDF6234D001010751E5
:1013B00017E000019751E20FD96EDA6ADF500101A0
:1013C000006F016B500E0025F66EFF0E0121F76EC7
:1013D000F86A000EF8220800F5508009846E17D0D4
:1013E00000019751E20FD96EDA6ADF500101006FF8
:1013F000016B420E0025F66EFF0E0121F76EF86AB2
:10140000000EF8220800F5508009FF0A836E0001E3
:10141000972B2ED00101075116E000019751E20FE2
:10142000D96EDA6ADF500101006F016B500E0025A2
:10143000F66EFF0E0121F76EF86A000EF822080022
:10144000F5CF84FF15D000019751E20FD96EDA6A0B
:10145000DF500101006F016B420E0025F66EFF0E9A
:101460000121F76EF86A000EF8220800F51C836E61
:101470000001972B9651040A04E1966B976B010EBD
:1014800002D0962B000E12000FC017F010C018F0FB
:1014900011C019F012C01AF0180E05D0D8901A32E7
:1014A000193218321732E82EF9D717501B6E1B6607
:1014B00001D015D013C017F014C018F015C019F0E2
:1014C00016C01AF0180E05D0D8901A3219321832F8
:1014D0001732E82EF9D71750216E216605D00F6A12
:1014E000106A116A126A57D021507B0F1B2612C056
:1014F00021F01650211A800E2116118E158E000E25
:1015000016161C6A1D6A1E6A1F6A070E206E0FA03F
:1015100008D013501C2614501D2215501E221650A0
:101520001F22D8901232113210320F32D890133657
:10153000143615361636202EEAD7110E206E0FA05F
:1015400008D013501C2614501D2215501E22165070
:101550001F22D8901232113210320F32D8901F321F
:101560001E321D321C32202EEAD71CC001F01DC0D5
:1015700002F01EC003F01FC004F01BC005F021C024
:1015800006F018EC8DF001C00FF002C010F003C09F
:1015900011F004C012F01200046A045000017C0F24
:1015A000D96EDA6ADF6A042A0D0E0464F6D7982B26
:1015B00098510E0AD8B4986B040EEA25016E000EFD
:1015C000EB21026E01C0F6FF02C0F7FF000EF86EBD
:1015D0000800F5CF03F0EAC0F6FFEBC0F7FF090003
:1015E000F5CFD9FF0900F5CFDAFF0350DF1298518C
:1015F000060D040EF326000EF422630EF324F66E9D
:10160000FF0EF420F76EF86A000EF8220800F5CFFE
:1016100001F09851060D020EF326000EF422630E1F
:10162000F324F66EFF0EF420F76EF86A000EF8222F
:101630000900F5CFD9FF0900F5CFDAFF0150DF121D
:101640009851060D040EF326000EF422630EF324C7
:10165000F66EFF0EF420F76EF86A000EF82208000E
:10166000F51C016E9851060D630EF324F66EFF0E05
:10167000F420F76EF86A000EF8220900F5CFD9FFC2
:101680000900F5CFDAFF0150DF169851060D630E01
:10169000016EFF0E026EF3500126F450022201C0CB
:1016A000EAF002C0EBF0120001C009F002C00AF03B
:1016B00003C00BF004C00CF0180E05D0D8900C320B
:1016C0000B320A320932E82EF9D70950126E12662F
:1016D00005D0016A026A036A046A68D005C009F08D
:1016E00006C00AF007C00BF008C00CF0180E05D0B9
:1016F000D8900C320B320A320932E82EF9D7095051
:10170000116E116601D0E5D7038E046A078E086A50
:101710000D6A0E6A0F6A106A7F0E125E1150A00FDA
:10172000125E200E116ED8900D360E360F36103622
:101730000550015C065002580750035808500458E1
:1017400009E30550015E0650025A0750035A08503B
:10175000045A0D80D8900136023603360436112E15
:10176000E2D712AE0FD01250800A096EE10E800A45
:10177000095CAFE3D89010320F320E320D32123EB8
:10178000F9D70CD01F0E126407D0A3D7D8900D360E
:101790000E360F36103612061266F8D70DC001F05D
:1017A0000EC002F00FC003F010C004F012000FC012
:1017B00017F010C018F011C019F012C01AF0180E6E
:1017C00005D0D8901A32193218321732E82EF9D7CC
:1017D0001750206E206601D015D013C017F014C02A
:1017E00018F015C019F016C01AF0180E05D0D890D0
:1017F0001A32193218321732E82EF9D71750216EE3
:10180000216605D00F6A106A116A126A43D021500E
:10181000890F205E12C021F01650211A800E211669
:10182000118E126A158E166A200E1F6ED8901B3606
:101830001C361D361E3613500F5C145010581550B0
:1018400011581650125809E313500F5E1450105AD5
:101850001550115A1650125A1B80D8900F36103658
:10186000113612361F2EE2D71BC001F01CC002F049
:101870001DC003F01EC004F020C005F021C006F01A
:1018800018EC8DF001C00FF002C010F003C011F091
:1018900004C012F0120003C009F00A6A0B6A023495
:1018A000093601E30A800950116E116605D0016AFC
:1018B000026A036A046A5AD007C009F00A6A0B6A0E
:1018C0000634093601E30A800950106E106601D013
:1018D000EED7028E036A068E076A0C6A0D6A0E6ADC
:1018E0000F6A7F0E115E1050980F115E180E106E69
:1018F000D8900C360D360E360F360550015C06506A
:1019000002580750035807E30550015E0650025A7B
:101910000750035A0C80D890013602360336102E39
:10192000E7D711AE0FD01150800A096EE90E800A78
:10193000095CBDE3D8900F320E320D320C32113EED
:10194000F9D70CD0170E116407D0B1D7D8900C3648
:101950000D360E360F3611061166F8D70CC001F0A1
:101960000DC002F00EC003F00FC004F0120042C020
:1019700046F043C047F044C048F045C049F0180E57
:1019800005D0D8904932483247324632E82EF9D74E
:1019900046504B6E4B6605D0426A436A446A456ABC
:1019A00046D042C046F043C047F044C048F045C06E
:1019B00049F0200E05D0D89049324832473246329D
:1019C000E82EF9D746504A6E448E456A960E4B5E15
:1019D0004BAE0FD04B50800A466EE90E800A465C33
:1019E000DBE3D89045324432433242324B3EF9D7A2
:1019F0000CD01F0E4B6407D0CFD7D8904236433659
:101A0000443645364B064B66F8D74A5008E0451E2B
:101A1000441E431E426C000E43224422452242C013
:101A200042F043C043F044C044F045C045F01200CA
:101A3000055005E004500110021003100BE1016A8B
:101A4000026A036A046A53D0052AD890043203322A
:101A500002320132076A086A096AFE0E04140A6E2D
:101A60000A500710081009100CE0EED7052A012AC9
:101A7000000E022203220422D890043203320232E2
:101A80000132076A086A096A04500A6E0A50071090
:101A90000810091007E0EAD70506D890013602368B
:101AA0000336043603AEF8D705B002D07F0E031616
:101AB000D890053205C007F0086A096A0A6A07C0AB
:101AC0000AF0096A086A076A0750011208500212F0
:101AD000095003120A5004120650D8A4048E01C003
:101AE00001F002C002F003C003F004C004F01200D1
:101AF0000C6A0A50800AF36E800EF35C000ED8B4B4
:101B0000095C06E2096C0A1ED8B00A2A010E0C6EA6
:101B10000850800AF36E800EF35C000ED8B4075CA8
:101B200006E2076C081ED8B0082A010E0C1A0D6ACE
:101B30000E6A0A5009101BE0010E0B6E04D0D890FB
:101B400009360A360B2A0AAEFAD7D8900D360E3669
:101B50000950075C0A50085805E30950075E0A500F
:101B6000085A0D80D8900A3209320B2EEED70C504D
:101B700004E00D6C0E1ED8B00E2A0DC007F00EC08A
:101B800008F01200066A0250800AF36E800EF35CC1
:101B9000000ED8B4015C06E2016C021ED8B0022A25
:101BA000010E066E0450800AF36E800EF35C000E88
:101BB000D8B4035C04E2036C041ED8B0042A0450B9
:101BC000031017E0010E056E04D0D89003360436DA
:101BD000052A04AEFAD70350015C0450025804E30E
:101BE0000350015E0450025AD89004320332052E8D
:101BF000F2D7065004E0016C021ED8B0022A01C0E0
:101C000001F002C002F01200096A0A6A0B6A0C6A4B
:101C1000085005100610071029E0010E0D6E06D0C1
:101C2000D89005360636073608360D2A08AEF8D79E
:101C3000D89009360A360B360C360550015C065032
:101C40000258075003580850045809E30550015E34
:101C50000650025A0750035A0850045A0980D89077
:101C600008320732063205320D2EE2D709C001F0E4
:101C70000AC002F00BC003F00CC004F01200936A1B
:101C8000956A966A240EAC6E900EAB6EA20EAF6E85
:101C9000010EC26E100EC16E860EC06EC2829D8C89
:101CA0009F9C210ECD6ECD809D809F90CA6ACA8474
:101CB0009D829F92030E76127650870B1009766EE6
:101CC0007684010E776EA386A586FF0E01010F6F45
:101CD000E60E0E6F1DEC88F0D08EF28EF28CFFD7E0
:101CE000155012101310141023E0010E166E06D0BA
:101CF000D8901236133614361536162A15AEF8D784
:101D000012500E5C13500F581450105815501158A3
:101D100008E312500E5E13500F5A1450105A15500B
:101D2000115AD8901532143213321232162EE8D7C7
:101D30000EC00EF00FC00FF010C010F011C011F067
:101D4000120004AE09D0016C021ED8B0022A031E94
:101D5000D8B0032A800E045608AE09D0056C061EC2
:101D6000D8B0062A071ED8B0072A800E0856800E63
:101D7000041A081A0550015C06500258075003580F
:101D80000850045802E2D89001D0D8801200096AA5
:101D90000A6A0B6A0C6A01A008D005500926065091
:101DA0000A2207500B2208500C22D890053606361E
:101DB00007360836D890043203320232013204501A
:101DC000011002100310E7E109C001F00AC002F09F
:101DD0000BC003F00CC004F01200F7CF0BF1F8CFEA
:101DE0000CF1F5CF0DF1A4B6A3A60CD0A4967750B4
:101DF000AEEC89F0000905E0D8907736776601D01F
:101E0000772A786A0DC1F5FF0CC1F8FF0BC1F7FF07
:101E10000AC1F6FF09C1DAFF08C1D9FF1100800E1F
:101E2000491A42C033F043C034F044C035F045C0D5
:101E300036F046C037F047C038F048C039F049C0E6
:101E40003AF049EC87F033C042F034C043F035C07B
:101E500044F036C045F01200066E086A055014E0E2
:101E6000010E076E03D0D8900536072A05AEFBD7C2
:101E7000D89008360550065C03E30550065E0880DE
:101E8000D8900532072EF4D70850120000EE60F00B
:101E90004B0EEE6AE806FDE1A20EF66E1F0EF76E1F
:101EA000010EF86E00EEE2F010EE0AF00900F5CF38
:101EB000EEFFE550E150FAE100013FEF8EF00BC07C
:101EC00001F00CC002F00DC003F00EC004F0960E3D
:101ED000056E000E066A18EC8DF001C00BF002C012
:101EE0000CF003C00DF004C00EF012000BC001F0A6
:101EF0000CC002F0036A046A960E056E000E066AB4
:101F000018EC8DF001C00BF002C00CF003C00DF016
:101F100004C00EF01200026E080E036E046AD89020
:101F200002340434046ED89002360150045C02E39B
:101F30000150045E032EF3D7045012000150030237
:101F4000F3CF05F0F4CF06F001500402F35006265B
:101F500002500302F350062605C001F006C002F04D
:101F6000120020EE01F0DE50DE10DE10DE1002E086
:101F7000800E041A01C001F002C002F003C003F099
:101F800004C004F01200036E026A3A0E035C05E21C
:101F90002F0E036402D0010E026E02C001F0013068
:101FA0001200082E082E082E082E63FF016E01C0B5
:041FB0009CF012008F
:020000040020DA
:08000000FFFFFFFFFFFFFFFF00
:020000040030CA
:0E000000FF220F0E830381FFFFC0FFE0FF40D1
:00000001FF
